:020000040000FA
:040000001EEF00F0FF
:0800080038EF00F0036A026EFC
:10001000FF0E0226032200D0D8A01200030E016EAC
:10002000E50E02D8F5D7016AFC0F006E0000E86A01
:1000300001D000060000015AFCE212000001796ABA
:10004000786A796A786A0F0EC16E0F01386B396B66
:100050003A6B9280928A936A946A010E036EF40E50
:10006000D6DFF29CCD92CD98F29E000152EF00F0C7
:10007000000104C008F0F29E000E9EB0010E046E56
:10008000000E9DB0010E0416D8B44EEF00F09D9006
:10009000180ECE26FC0ECF229D809E90F28E08C0B8
:1000A00004F01100936A8A6A100EE82EFED7000051
:1000B000000093908A90100EE82EFED700000000FA
:1000C000040E066E150E056E2BEC01F0E00E066EAA
:1000D000056A2BEC01F0100EE82EFED700000000A0
:1000E00093908A80100EE82EFED7000000009390B7
:1000F0008A90100EE82EFED700000000066A5B0E04
:10010000056E2BEC01F0600E066E010E056E2BECF9
:1001100001F02BEC01F0100EE82EFED700000000DD
:1001200093908A80100EE82EFED700000000939076
:100130008A90100EE82EFED700000000066A056ABD
:100140002BEC01F0820E066E1A0E056E2BEC01F000
:10015000100EE82EFED70000000093908A80100E4B
:10016000E82EFED70000000093908A90100EE82E33
:10017000FED700000000066A450E056E2BEC01F06C
:10018000380E066E05682BEC01F0100EE82EFED737
:100190000000000093908A80100EE82EFED7000029
:1001A000000093908A90030E036EE80E30DF030E7A
:1001B000036EE80E2CDF030E036EE80E28DF93902B
:1001C0008A90100EE82EFED700000000066A450E49
:1001D000056E2BEC01F0380E066EF70E056E2BEC5B
:1001E00001F0100EE82EFED70000000093908A80E8
:1001F000100EE82EFED70000000093908A90030EA8
:10020000036EE80E04DF030E036EE80E00DF030E3C
:10021000036EE80EFCDE93908A90100EE82EFED757
:1002200000000000066A450E056E2BEC01F0380E4A
:10023000066E05682BEC01F0100EE82EFED70000CC
:10024000000093908A80100EE82EFED70000000078
:1002500093908A90A8D7010E076E110E076055EF94
:1002600001F093928A9293948A9406AE3AEF01F049
:1002700093928A82D89005360636100EE82EFED765
:100280000000000093948A84100EE82EFED7000030
:10029000000093948A94100EE82EFED70000000010
:0E02A00081789398072AD8A0D8D71200FFD7EC
:020000040030CA
:03000100221E1CA0
:020005003F803A
:0600080003C003E0034009
:00000001FF
