:020000040000FA
:040000001EEF00F0FF
:0800080038EF00F0036A026EFC
:10001000FF0E0226032200D0D8A01200030E016EAC
:10002000E50E02D8F5D7016AFC0F006E0000E86A01
:1000300001D000060000015AFCE212000001796ABA
:10004000786A796A786A0F0EC16E0F01386B396B66
:100050003A6B9280928A936A946A010E036EF40E50
:10006000D6DFF29CCD92CD98F29E000156EF00F0C3
:10007000000104C00EF0F29E000E9EB0010E046E50
:10008000000E9DB0010E0416D8B44EEF00F09D9006
:10009000180ECE26FC0ECF229D809E90F28E0EC0B2
:1000A00004F01100020E096E330E086E936A8A6A1C
:1000B000100EE82EFED70000000093908A90100EDC
:1000C000E82EFED700000000066A160E056E9DECB5
:1000D00001F0200E066E056A9DEC01F0100EE82E70
:1000E000FED70000000093908A80100EE82EFED705
:1000F0000000000093908A90100EE82EFED70000BA
:100100000000066A230E056E9DEC01F0A00E066E3F
:10011000010E056E9DEC01F09DEC01F0100EE82E35
:10012000FED70000000093908A80100EE82EFED7C4
:100130000000000093908A90100EE82EFED7000079
:100140000000066A056A9DEC01F0870E066EE20E5D
:10015000056E9DEC01F0100EE82EFED700000000A9
:1001600093908A80100EE82EFED700000000939036
:100170008A90100EE82EFED700000000066A400E9E
:10018000056E9DEC01F0280E066E6F0E056E9DEC5F
:1001900001F0100EE82EFED70000000093908A8038
:1001A000100EE82EFED70000000093908A900B6A94
:1001B000120E0A6E0B52D8A40CEF01F0330E0A6037
:1001C0000CEF01F0100EE82EFED700000000939017
:1001D0008A90100EE82EFED7000000000BC006F03B
:1001E0000AC005F09DEC01F0A00E066E010E056E32
:1001F0009DEC01F09DEC01F0100EE82EFED7000002
:10020000000093908A80010E036EF40E00DF0A2A2C
:10021000000E0B22D8A0CED7817A939AC8D7096A4C
:10022000010E086E130E085C020E0958D8B041EF9B
:1002300001F0100EE82EFED70000000093908A9087
:10024000100EE82EFED700000000066A820E056E32
:100250009DEC01F0066A010E056E9DEC01F09DEC2F
:1002600001F0100EE82EFED70000000093908A8067
:10027000030E036EE80ECBDE082A000E0922D8A07A
:10028000D1D795D7010EC2DE92D7030E036EE80ECA
:10029000BEDE030E036EE80EBADE030E036EE80E3A
:1002A000B6DE93908A90100EE82EFED70000000074
:1002B000066A450E056E9DEC01F0200E066EF70EE7
:1002C000056E9DEC01F0100EE82EFED70000000038
:1002D00093908A80100EE82EFED7000000009390C5
:1002E0008A90030E036EE80E92DE030E036EE80E94
:1002F0008EDE030E036EE80E8ADE93908A90100E57
:10030000E82EFED700000000066A450E056E9DEC43
:1003100001F0200E066E05689DEC01F0100EE82E2F
:10032000FED70000000093908A80100EE82EFED7C2
:100330000000000093908A903AD7010E076E110ECC
:100340000760C7EF01F093928A9293948A9406AE65
:10035000ACEF01F093928A82D89005360636100EE3
:10036000E82EFED70000000093948A84100EE82E39
:10037000FED70000000093948A94100EE82EFED75A
:100380000000000081789398072AD8A0D8D71200DF
:02039000FFD795
:020000040030CA
:03000100221E1CA0
:020005003F803A
:0600080003C003E0034009
:00000001FF
